:100000001EC03ECE37C036C035C034C033C032C04B
:1000100031C092CC2FC02EC02DC02CC02BC02AC006
:1000200029C028C027C038C54EC5CDC5B4C6D2C664
:10003000EEC6F5C6A6C6ACDE48FD0FD00000112402
:100040001FBECFE5D4E0DEBFCDBF10E0A0E6B0E03C
:10005000E0E7FDE102C005900D92A636B107D9F7A1
:1000600013E0A6E6B0E001C01D92A33EB107E1F7A0
:1000700050DE7CCEC5CFCF93DF93EC017B836A83C8
:100080007CDC99838883DF91CF910895FC01808186
:10009000918122813381820F931F91838083089500
:1000A000CF93DF93EC0169DC99838883DF91CF9153
:1000B0000895CF93DF93EC0160DC28813981821BA6
:1000C000930B21E030E04A815B818417950710F49F
:1000D00020E030E0C901DF91CF9108959C014150AB
:1000E0005109460F571FFB010EC0B081A0E081816E
:1000F000BD01680F711D260F371F2617370710F433
:100100002F5F3F4F3296E417F50778F3E417F507B2
:1001100049F4908180E0280F391F2817390710F41F
:100120002F5F3F4FC901089590936D0080936C003D
:100130000895FC015381560F5093E500872F9927AE
:100140004281480F4093E400A181A093E300E08145
:10015000E093E200242F30E02817390748F48A2F73
:100160008F5F8093E300811103C0EF5FE093E200B3
:10017000852F90E077278617970788F44F5F409385
:10018000E40041110CC08091E3008F5F8093E30095
:10019000811105C08091E2008F5F8093E200089595
:1001A000AB01BC0180E090E099DF382F292FC90115
:1001B000089544E150E06BE372E080E090E08EDF70
:1001C000009719F0382F292F02C02FEF3FEFC901F8
:1001D0000895CF93DF9350913D0240E080913E021D
:1001E000EA01C80FD11D48E050E067E472E0CE019B
:1001F0000E9774DFAE01445151096FE472E06EDF77
:10020000009719F0382F292F02C02FEF3FEFC901B7
:10021000DF91CF91089580E0E82FF0E0EE0FFF1F0F
:10022000E35FFD4F118210828F5F8A30A8F380E078
:100230009DE1989FF0011124E551FF4F118E8F5FD2
:100240008A30B8F380936E0080E094E09093700061
:1002500080936F000895CF93DF9320916F003091CA
:100260007000CDE12F5F3F4F21154DE7340710F0AF
:1002700020E030E1B22FA32F40E050E012C0C49F35
:10028000F001C59FF00D1124E551FF4FD18DDD2305
:1002900031F00480F581E02DEA17FB0719F34F5F79
:1002A0005F4F4A30510559F73093700020936F002B
:1002B00010926E0020E0E0E0F0E04DE11BC0429FB4
:1002C000D0011124A551BF4F59963C915997311136
:1002D00004C020936E00FD0111C0373051F43097F7
:1002E00039F05A965C915A97328D351708F001C053
:1002F000FD012F5F2A3018F320936E003097B9F17B
:1003000022E0218F2091710024872091720025879F
:1003100020917300268720917400278726E531E01D
:10032000338B228B358B248B21E030E0318B208B7B
:10033000138E21E0228F23E0208F168A20E1278B65
:1003400020916F00309170003227232732273583A8
:10035000248377836683DC012D913C91119731834F
:10036000208312968D919C91139793838283CF0162
:10037000DF91CF91089540E013C0E42FF0E0542FB7
:100380005F5FEE0FFF1FE35FFD4F20813181281774
:10039000390729F440936E00118210820895452F89
:1003A0004A3058F340936E00089540E012C0E42FA5
:1003B000F0E0542F5F5FEE0FFF1FE35FFD4F2081E2
:1003C0003181232B29F440936E009183808308951B
:1003D000452F4A3060F340936E000895FF920F93CB
:1003E0001F93CF93DF93C091E900D091EA0023E6F9
:1003F00032E03093E8002093E7003093E10020934F
:10040000E000833059F4898D8F70833009F0A0C5E6
:1004100088899989892B09F09BC57FC0823009F0B2
:1004200080C0809174008F5F80937400811113C02D
:10043000809173008F5F8093730081110CC0809155
:1004400072008F5F80937200811105C080917100EE
:100450008F5F809371001092DF001092DE00109287
:10046000BC031092BB03298D273011F0253041F4D5
:100470008A8D8F5F8A8F883709F06AC5198E68C5A3
:10048000222309F465C588899989892B09F441C01B
:100490008A8D982F91509A8F81115AC53B8D383093
:1004A00031F0822F8150823040F4353031F4198E92
:1004B00080E88093E6002CDA0BC4353040F483E00A
:1004C00090E0032E01C0880F0A94EAF701C080E390
:1004D0008A8F3F5F3B8F822F8F708330A9F038F473
:1004E000813009F427C2823009F032C50AC0863053
:1004F00009F491C3883009F48EC3843009F028C50B
:100500008AC310925C0219C284E08093E60000DA8C
:1005100011C42F70233009F01BC588E08093E600DA
:10052000CDC380913B02853409F012C510913D0284
:1005300000E080913E02080F111D8091DE00909135
:10054000DF008017910708F403C51093DF000093C4
:10055000DE00809141028F7309F0FAC4809142025B
:100560008111F6C4C0912902D0912A02209731F45A
:1005700080912B0290912C02892BA1F080914B024B
:1005800090914C028C179D0709F0E2C420914D0216
:1005900030914E0280912B0290912C02281739073E
:1005A00009F0D6C406DE019609F0D2C48091440257
:1005B0008630B1F1813009F0CBC480914F02883090
:1005C00009F0C6C410924F028091510290915202DC
:1005D000873F6FEF960710F0099601C00896909339
:1005E0005202809351028091470290914802909369
:1005F0004C0280934B028091490290914A02909361
:100600004E0280934D02D0934802C09347028091DE
:100610002B0290912C0290934A02809349029CC431
:10062000D8DD019609F094C4809151029091520254
:1006300020914F0230915002409147025091480260
:100640006091490270914A02E4E0F1E0CBEED0E023
:10065000F080FF20A9F0AC81BD818A179B0781F44F
:10066000AE81BF812A173B0759F4A881B9814A1787
:100670005B0731F4AA81BB816A177B0709F476C155
:100680006D967D96A2E0CD30DA0711F720915C02DD
:100690002F732230B9F4909376008093750040E078
:1006A0000DC0E42FF0E0EE0FFF1FE35FFD4F208150
:1006B00031814F5F8217930709F47DC04A3088F378
:1006C00040936E0080915C0282FD42C484E180937D
:1006D0005C0288E290E09093DF008093DE0080E58A
:1006E00080935B028091560290915A029093560239
:1006F00030915502909159029093550230935902CE
:1007000020915402909158029093540220935802E1
:100710009091530290936E00409157024093530280
:10072000909357028F5F80935A0281110FC0832FDD
:100730008F5F80935902811109C0822F8F5F809350
:100740005802811103C09F5F9093570280914F021E
:100750009091500290937600809375002091510201
:10076000309152023093500220934F0290935202E4
:1007700080935102809147029091480290934C02DD
:1007800080934B028091490290914A0290934E02CD
:1007900080934D028091290290912A029093480201
:1007A0008093470280912B0290912C0290934A02F1
:1007B0008093490291C310926E0040E0C0E0D0E007
:1007C0005DE120C0242F30E0529FF001539FF00DD7
:1007D0001124E551FF4F618D611104C040936E00FB
:1007E000EF0114C0673069F4209721F0728D6A8D93
:1007F000671738F4529FE001539FD00D1124C55163
:10080000DF4F4F5F4A30F0F240936E00209709F4BB
:100810009FC3D093EA00C093E90023E02A8F288F7A
:100820001E8A24E02F8B1B8E9D838C8380914F0228
:10083000909150029F838E8380914702909148024D
:10084000998388838091490290914A029B838A838D
:1008500081E0898F809171008C87809172008D87F3
:10086000809173008E87809174008F8781E090E083
:10087000998B888B809156028B87809155028A874D
:1008800080915402898780915302888781E090E0AB
:1008900027DA80915B02282F207F30E02135310557
:1008A0000CF448C082958F7090E00597880F991FCF
:1008B000880F991F5091770040E033C0F901E35D44
:1008C000FD4F56A9511105C040936E00109277005C
:1008D00031C0513011F44F5F24C05230D1F467A9B8
:1008E0006430B9F440936E005093770090AD80E08F
:1008F00021AD822B9093760080937500873521E09F
:10090000920710F086E591E09B8B8A8B9D8B8C8BF8
:1009100011C0F901E35DFD4F27A9211101C006C0F7
:10092000420F242F30E02817390744F240936E001D
:100930005093770080E180935C0280915C0282603A
:1009400080935C0282E08093630284E0809364027F
:1009500081E08093650286E5809366028CE290E0F8
:100960009093DF008093DE0080E663C2D093EA00BC
:10097000C093E9001092E60090915C0292FF03C0E0
:10098000198E80E204C280915B0282958F70880F7D
:10099000880F80936E00081B1109045111091093F0
:1009A000DF000093DE008F2D8F70823021F4892FBD
:1009B0008F738231C9F0012B19F4892F8370A1F054
:1009C00020915302888528132AC2209154028985D8
:1009D000281325C2209155028A85281320C2209110
:1009E00056028B8528131BC294FF49C068897989F8
:1009F0006115710509F443C0CE010C969ADB309164
:100A000057028091E20038133AC020915802809139
:100A1000E300281334C0909159028091E4009813A8
:100A20002EC080915A024091E500841328C03C8773
:100A30002D879E878F878B8D81111AC02E89888D77
:100A40009A8D891B922F969596959695891B280FBE
:100A50002E8B87FD81959F89392F36953695931B6F
:100A6000980F9F8B822F869586958695890F888F04
:100A700081E08093E600888D8A8F198A188A498DD3
:100A8000842F8F7090E0FC013197E830F10508F079
:100A90005FC2ED5EFF4F09948091E60080FF58C26F
:100AA00083E0898F80E48093E600198A188A809118
:100AB000DE009091DF00009709F4FCC022E420934F
:100AC000E6000ED9F7C08091E60080FF72C08091E9
:100AD0005C028F73823109F06CC080915B02282F19
:100AE000207F30E0213531050CF448C082958F70AD
:100AF00090E00597880F991F880F991F50917700F4
:100B000040E033C0F901E35DFD4F56A9511105C026
:100B100040936E001092770031C0513011F44F5F56
:100B200024C05230D1F467A96430B9F440936E0008
:100B30005093770090AD80E021AD822B90937600AA
:100B400080937500873561E0960710F086E591E0A7
:100B50009B8B8A8B9D8B8C8B11C0F901E35DFD4FC4
:100B600027A9211101C006C0420F242F30E0281709
:100B7000390744F240936E005093770083E0898FE9
:100B80008091530288878091540289878091550211
:100B90008A87809156028B8781E090E0A1D882E419
:100BA0008093E600198A188A1092DF001092DE0006
:100BB00081C080E28093E600ABD6E091E900F0913D
:100BC000EA00118E7FCD80915C0280FF26C044FD3B
:100BD00024C088899989892B09F0BAC18091DE00E7
:100BE0009091DF0001967CD82091E600822F8061F1
:100BF0008093E6008091DE009091DF00892B19F050
:100C000022612093E60084D681E090E0998B888B66
:100C100088E0898F1B8E81E103C185FF1CC0909104
:100C2000610280E020916202BC01622B9B018091F5
:100C3000E7009091E800820F931F9093E800809363
:100C4000E7008091DE009091DF00821B930B909370
:100C5000DF008093DE008091DE009091DF0000973E
:100C600041F044FD06C02091E60022602093E6009A
:100C700037D890915D0280E020915E02820F911D35
:100C800090937600809375002C893D892817390749
:100C900010F0892B21F43093760020937500809119
:100CA0007500909176009B8B8A8B8091E600837013
:100CB00009F44EC11092BC031092BB0329D6809157
:100CC000E60085FF07C01092BC031092BB03198E8B
:100CD00084E1A6C084FF0AC01092BC031092BB033B
:100CE00081E090E0998B888B84E093CF2091BB03C7
:100CF0003091BC0321153105E1F080FF02C0198A53
:100D0000188A88899989009781F48A899B89821732
:100D1000930720F49093BC038093BB038091BB03A3
:100D20009091BC03998B888B04C09093BC038093F3
:100D3000BB031B8E8091E0009091E1009093E8004E
:100D40008093E7008091BB039091BC03892B59F0FD
:100D500088899989009739F088969093DF0080936D
:100D6000DE0088E10BC08091E60081FFF1C088E2DF
:100D700090E09093DF008093DE0080E180935C023E
:100D800057C08091E60080FFE3C0198E80E1809318
:100D9000E600BED5DDC08091DE009091DF000097B7
:100DA00009F09ED790915C028091E60090FF0BC005
:100DB00080FF06C087E0898F1A8E198A188A18C0AA
:100DC00086E0898F15C080FF1BC085E0898F198A56
:100DD000188ABEC08091DE009091DF00009709F074
:100DE0007FD780915C0280FF0BC087E0898F1A8ECD
:100DF00081E090E075D780E18093E60089D50FC04F
:100E00008091DE009091DF00892B49F4A1C0809190
:100E1000E60080FF9DC087E0898F1A8E99C080E12F
:100E200080935C0288E290E09093DF008093DE0084
:100E300080E580935B028885809357028985809343
:100E400058028A85809359028B8580935A028C853B
:100E5000809353028D85809354028E858093550232
:100E60008F858093560286E0809344028C819D8119
:100E70009093500280934F028E819F8190935202F3
:100E8000809351028091290290912A029093480206
:100E90008093470280912B0290912C0290934A02FA
:100EA000809349028881998190934C0280934B02F0
:100EB0008A819B8190934E0280934D02898D84FF9D
:100EC00005C010925E0210925D0206C081E0809320
:100ED0005D0286E580935E0280E480934302809108
:100EE000DE009091DF0090933D0280933E021092CD
:100EF0006202109261021092600210925F0269D940
:100F0000809590959093600280935F0285E4809332
:100F10003B0210923C0210924202109241028091D8
:100F20006C0090916D00019690936D0080936C0021
:100F300090933F0280934002109246021092450225
:100F400038D980959095909346028093450204C0CD
:100F50001092DF001092DE001092E600DF91CF9138
:100F60001F910F91FF900895382F292FC9010895DF
:100F7000161617067CF46093BB037093BC03209194
:100F8000E0003091E1008217930721F0AB01BC0132
:100F9000C901DCC60895CF93DF9340914902509177
:100FA0004A0260914B0270914C02E0E0FBE01DC0F0
:100FB000FE9FE0011124C758DF4F28813981211598
:100FC000310591F08A819B81009771F04217530798
:100FD00059F46817790741F4E0937800DE0114961C
:100FE00086E0E3E4F2E058C0EF5FE83008F320E089
:100FF0003BE011C0329FE0011124C758DF4F8881C8
:101000009981892B39F48A819B81892B19F420934A
:10101000780030C02F5F283068F3209378002830A4
:1010200049F5A091D1008A2F90E070E0C0E060E027
:10103000BBE012C0B69FF0011124E758FF4FE285D4
:10104000AC014E1B5109272F30E0241735071CF443
:101050007A2F7E1BC62F6F5F683060F37093D200CB
:10106000C093D300C09378008BE0C89FE0011124A7
:10107000C758DF4F8091490290914A02A0914B02DC
:10108000B0914C02FE0181939193A193B1939F0182
:1010900086E0E3E4F2E0D90101900D928A95E1F750
:1010A0008091D1008A87DF91CF91089510927800C6
:1010B0009BE00CC0989FF0011124E758FF4F10826D
:1010C0001182128213828F5F809378008091780062
:1010D000883080F308952091D1002F5F2093D100B4
:1010E000109278007BE030E01BC0769FF001112465
:1010F000E758FF4F8281938140815181842B952B4A
:10110000892B59F08285A901481B5109483751059F
:1011100024F010821182128213826F5F6093780034
:1011200060917800683008F308958091DE00909116
:10113000DF001092DF001092DE008A9708F4089515
:101140008091410290914202811521E0920729F09D
:101150008115924009F088C070C0209153023091EF
:1011600054028091290290912A022817390709F028
:101170007BC0209155023091560280912B029091B4
:101180002C022817390709F06FC005DF80E092E0D4
:10119000909342028093410286E0E3E4F2E0ADE402
:1011A000B2E001900D928A95E1F786E0E6E6F0E084
:1011B000A3E4B2E001900D928A95E1F786E0E6E6BD
:1011C000F0E0A3E3B2E001900D928A95E1F786E0AA
:1011D000EDE4F2E0ADE2B2E001900D928A95E1F724
:1011E0008091490290914A02909354028093530255
:1011F00080914B0290914C0290935602809355023D
:101200008091290290912A0290934A028093490288
:1012100080912B0290912C0290934C0280934B0270
:1012200088E096E090933A02809339028AE290E057
:101230009093DF008093DE00089520915302309157
:1012400054028091290290912A022817390761F4EB
:10125000209155023091560280912B0290912C02E0
:101260002817390709F497CE089520914B02309141
:101270004C022F3F4FEF340751F480914D02909173
:101280004E02019621F486E0E0E6F0E0C5C08091D0
:10129000290290912A02822793274091250250919A
:1012A000260284239523892B91F440914D0250917D
:1012B0004E0280912B0290912C02842795276091F9
:1012C00027027091280286239723892B89F0809129
:1012D0002102909122029093D5008093D4008091B6
:1012E0002302909124029093D7008093D60008C0E7
:1012F0003093D5002093D4005093D7004093D6006C
:101300008091D4009091D5002091D6003091D700E3
:1013100060E07BE011C0769FF0011124E758FF4F99
:10132000408151818417950731F4428153812417FC
:10133000350709F46DC06F5F683068F3609378001B
:10134000683009F067C046E050E06FEF70E08DE272
:1013500092E005D526E0EDE4F2E0DF01422F1D9298
:101360004A95E9F7E6E6F0E0A3E3B2E0822F0190C8
:101370000D928A95E1F7E6E6F0E0A3E4B2E0822F71
:1013800001900D928A95E1F78091D4009091D5005B
:1013900090935402809353028091D6009091D7008D
:1013A00090935602809355028091290290912A02CF
:1013B00090934A028093490280912B0290912C02D3
:1013C00090934C0280934B0280E091E09093420214
:1013D0008093410290933C0280933B0288E090E02E
:1013E00090933E0280933D0220933F0284E08093DD
:1013F000400288E096E090933A028093390283E6B7
:1014000092E09093E8008093E7008AE290E01EC0AB
:1014100060937800349686E0ADE2B2E001900D92E0
:101420008A95E1F786E0E6E6F0E0A3E3B2E001901A
:101430000D928A95E1F788E090E090933A028093CC
:1014400039028091DE009091DF000E969093DF00CC
:101450008093DE000895CF93DF931F92CDB7DEB760
:10146000C298962F9F71892B6983FFD180E0FDD1AF
:10147000698167FF02C080E0F8D1C29A0F90DF91C6
:10148000CF910895CF93DF931F92CDB7DEB7C29867
:101490006F71862B4983E9D14981842FE6D1C29AA5
:1014A0000F90DF91CF9108950F931F93CF93DF9308
:1014B0008C01EB01C2988AE3D8D1B801CE01EED1FC
:1014C000C29ADF91CF911F910F9108950F931F93AF
:1014D000CF93DF938C01EB01C2988AE7C6D1B801A4
:1014E000CE01C8D1C29ADF91CF911F910F9108957B
:1014F000CF93C82FC0768091C003C81781F043E016
:101500006FE180EABFDF4C2F50E085E055954795AD
:101510008A95E1F76FE180E8B5DFC093C003CF9112
:101520000895CF93DF931F92CDB7DEB7682F6983FD
:10153000DFDF698180E00F90DF91CF918CCF1F9327
:10154000CF93DF931F92CDB7DEB7182F6983D0DF1B
:101550004981612F80E40F90DF91CF911F9192CF4D
:10156000CF93DF93682F84EDEADF61E082EDE7DF60
:101570008AEED7DF80FDFCCF60E082EDE0DF88ED12
:10158000D0DFC82FD0E089EDCCDF382F20E02C2B26
:101590003D2BC901DF91CF9108951F93CF93DF9326
:1015A0001F92CDB7DEB7162F682F84ED7983C7DF82
:1015B000612F86EDC4DF7981672F87EDC0DF8AEE6A
:1015C000B0DF80FDFCCF0F90DF91CF911F91089588
:1015D00076D1811103C082E090E02ED1BA9AC29AEE
:1015E0004FEF60E08FEF4EDF8AE68A95F1F700C09B
:1015F0008AE68A95F1F700C08AE68A95F1F700C07D
:101600008AE68A95F1F700C08DE18BDF80FFFCCF81
:1016100082E787DF8093BF031092BE031092BD0361
:1016200060E088E08CDF60E089E089DF60E08CE0EA
:1016300086DF60E08DE083DF6EEF8AE080DF67E1C8
:101640008BE07DDF60E084E07ADF68E185E077DFD2
:101650006DE080EC74DF60E081EC71DF42E362EC0E
:1016600080E810DF62E186EC6ADF6CE087EC67DF20
:1016700062E184EC64DF60E98AEC61DF61E08BECBD
:101680005EDF6091660084EE5ADF6091670085EE50
:1016900056DF6091680082EE52DF6091690083EE50
:1016A0004EDF60916A0080EE4ADF60916B0081EE50
:1016B00046DF60E071E080E170DF8FE119DF40EC30
:1016C0006BE180E8DFDE44E06FE180E8DBDE60E2D2
:1016D00074E084E162CF0F931F93CF93DF93EC010B
:1016E0008B0160E082E02BDF68E183E028DF6C2F74
:1016F00086E025DFCE01985E692F87E020DF40E09D
:1017000060E08AE7BFDEB801CE01E0DE48E06FE1CD
:1017100080E8DF91CF911F910F91B4CEEF92FF92AD
:101720000F931F93CF93DF938C017B018CE1F9DE44
:1017300086FF33C06091BD0380E001DF6091BE038E
:1017400081E0FDDE60E08AE386DEC82FD0E0D09342
:10175000BE03C093BD0360E08AE37DDE382F20E046
:101760002C2B3D2B3093BE032093BD0360E08AE316
:1017700072DEC82FD0E060E08AE36DDE382F20E013
:10178000C22BD32B249760E08AE365DE60E08AE316
:1017900062DE0C171D0798F405C089E3C2DE8111D3
:1017A000C9CF40C06091BD038CE0C9DE6091BE032B
:1017B0008DE0C5DE40E46EE180E864DE33C0B70151
:1017C000CE0172DE89E0ADDE182F00E088E0A9DEF0
:1017D0007801E82A8BE0A5DE182F00E08AE0A1DE80
:1017E000082B6091BD037091BE03CB0101978E154C
:1017F0009F0518F00817190728F4602F8CE09FDE6A
:10180000612F09C061508CE09ADE8091BD039091F8
:10181000BE030197692F8DE092DE40E46EE180E81F
:1018200031DE02C0C0E0D0E0CE01DF91CF911F9148
:101830000F91FF90EF900895C59A27B3286227BBB8
:10184000BC982DB120652DB98130910521F48EB160
:101850008EB981E005C08230910521F4709A82E052
:101860008093D80080E090E008958FB9779BFECFF9
:101870008FB10895DC018C918FB981E090E008C0B0
:10188000FD01E80FF91F2081779BFECF2FB901964C
:1018900086179707A8F3779BFECF08951FB8FC0122
:1018A00080E090E006C0779BFECF1FB82FB1219358
:1018B000019686179707B9F7779BFECF0895809119
:1018C000D800089588E095E170C51092DB00089576
:1018D0008091DE009091DF00A091E700B091E800D8
:1018E000EEECF3E04E2F02C02D9121932E2F241BFE
:1018F00030E028173907C0F38093DC00D4C1609131
:10190000DB00662321F070E081EC93E031CB089599
:101910008091E60080FD1092DB0081FDD9DF80918F
:10192000E6008C7009F0EBDF8091E60087FF03C0D2
:1019300080E18093E60008951F920F920FB60F92F8
:1019400011248F939F938091D9009091DA00019692
:101950009093DA008093D90088B7816088BF9F9107
:101960008F910F900FBE0F901F90189589B78160CF
:1019700089BF83B7856083BF089589B78E7F89BF8C
:101980008091D9009091DA0029B7216029BF08958C
:101990009C99FECF08959C9BFECF0895AD98FBDFE8
:1019A000AD9A0895AD98F4DFAD9AF5CFCF93F0DFFF
:1019B000C0B3F4DF8C2F8370CF91089514BA8FEFEA
:1019C00085BB8898909A8998919A8FE39CE90197B2
:1019D000F1F700C0000008958F3F31F484B38F60A9
:1019E00084BB85B3807F05C084B3807F84BB85B30F
:1019F0008F6085BB0895AC9AA498AD9AA59A8898F3
:101A0000909A8998919A80E0E7DF8FE39CE90197AB
:101A1000F1F700C00000BCDFC1CF14BA8FEF85BB67
:101A2000B998C19AC09AB89A089595B38F70907F6B
:101A3000892B85BBB7CFCF93ABDFC3B3AFDF8C2F81
:101A40008F70CF910895CF93C82F82958F70EDDF5F
:101A50008C2FCF91EACFCF93EEDFC82FC295C07FF6
:101A6000EADF8C2BCF9108950F931F93CF93DF93D1
:101A7000182FE9DFCEECD3E00C2F02C08991E3DF11
:101A80008C2F801B8117D0F3DF91CF911F910F9185
:101A90000895FF920F931F93CF93DF938C01DBDFA9
:101AA000F8018083C1ECD3E0FC2E02C0D4DF89931F
:101AB0009C2F9F19F80180819817C0F3DF91CF9177
:101AC0001F910F91FF90089586B3827008952DE1C4
:101AD000829FC001112485519F4F9093EA0080930B
:101AE000E90083E07BD48091DE009091DF00892BB8
:101AF00041F0BBDB6DE272E08091DE009091DF008F
:101B0000EACD08956EE170E08FED93E0B4D262E625
:101B100072E08BED93E0AFD27ED3C8DA46E050E0BE
:101B200066E370E086E690E008D180EC98EA909356
:101B30002A028093290280E092E390932C02809302
:101B40002B028FEF9FEF90932602809325028FEF59
:101B500090E090932802809327023ADDB3DE929AB8
:101B60008A981092DD008BB780648BBF08951F9315
:101B7000CF93DF938FED93E09CD2892B89F18FED8A
:101B800093E084D2C0E0D0E01DE11C9FC0011D9F06
:101B9000900D112485519F4F9093EA008093E900A6
:101BA00082E01CD48091DE009091DF00892B41F00F
:101BB0005CDB6DE272E08091DE009091DF008BDDF6
:101BC0002196CA30D10509F78BED93E072D2892BAB
:101BD00039F08BED93E05AD2DF91CF911F917BCA00
:101BE000DF91CF911F910895CF93DF938091DD0016
:101BF00081113AC040C06DE272E08CE891E08EDD68
:101C00009093DF008093DE00892B71F1C09139023F
:101C1000D0913A0280E098E0A7D9C817D90781F49B
:101C200081E0DCD38091DE009091DF00892BE1F030
:101C30001CDB6DE272E08091DE009091DF0013C04A
:101C4000C0913902D0913A0286E098E08DD9C81748
:101C5000D90751F46ADA8091DE009091DF00009795
:101C600019F06DE272E037DD829BC5CF1092DD0086
:101C70008BB780648BBFDF91CF91089578DFB4CFAD
:101C80001F920F920FB60F9211248F9381E08093D1
:101C9000DD008BB78F7B8BBF8F910F900FBE0F90A6
:101CA0001F901895BACEC09808950EDF8823B1F022
:101CB000A2DE7CDE813019F0823081F406C08BED2B
:101CC00090E0E7DE7BDE81E00895C09A8FEF84DE4E
:101CD0008091DC00C9DE72DE82E0089580E0089524
:101CE0002091E9003091EA00BC01C901089621D297
:101CF000E091E900F091EA008091E2008087809114
:101D0000E30081878091E40082878091E5008387EA
:101D100008952FEF83ED90E3215080409040E1F74C
:101D200000C00000BFDFEEDE21DE7894BEDF813030
:101D300011F480E0CCDEA2DFF9CFFB01DC0102C0B0
:101D400005900D9241505040D8F70895FB01DC01F9
:101D500002C001900D9241505040D8F70895DC0127
:101D600001C06D9341505040E0F70895F894FFCFC3
:061D7000FFFFFFFFFFFF73
:00000001FF
